{
  "_format": "hh-sol-artifact-1",
  "contractName": "PBMFreeContract",
  "sourceName": "contracts/pbm.sol",
  "abi": [
    {
      "inputs": [
        {
          "internalType": "address",
          "name": "_insuranceCompany",
          "type": "address"
        }
      ],
      "stateMutability": "nonpayable",
      "type": "constructor"
    },
    {
      "anonymous": false,
      "inputs": [
        {
          "indexed": false,
          "internalType": "string",
          "name": "product",
          "type": "string"
        },
        {
          "indexed": false,
          "internalType": "uint256",
          "name": "discountPercentage",
          "type": "uint256"
        }
      ],
      "name": "DiscountApproved",
      "type": "event"
    },
    {
      "anonymous": false,
      "inputs": [
        {
          "indexed": true,
          "internalType": "address",
          "name": "pharmacy",
          "type": "address"
        },
        {
          "indexed": true,
          "internalType": "address",
          "name": "insuranceCompany",
          "type": "address"
        },
        {
          "indexed": true,
          "internalType": "address",
          "name": "manufacturer",
          "type": "address"
        },
        {
          "indexed": false,
          "internalType": "string",
          "name": "product",
          "type": "string"
        },
        {
          "indexed": false,
          "internalType": "uint256",
          "name": "originalPrice",
          "type": "uint256"
        },
        {
          "indexed": false,
          "internalType": "uint256",
          "name": "discountedPrice",
          "type": "uint256"
        },
        {
          "indexed": false,
          "internalType": "uint256",
          "name": "discountApplied",
          "type": "uint256"
        }
      ],
      "name": "TransactionExecuted",
      "type": "event"
    },
    {
      "inputs": [
        {
          "internalType": "string",
          "name": "product",
          "type": "string"
        },
        {
          "internalType": "uint256",
          "name": "discountPercentage",
          "type": "uint256"
        }
      ],
      "name": "approveDiscount",
      "outputs": [],
      "stateMutability": "nonpayable",
      "type": "function"
    },
    {
      "inputs": [
        {
          "internalType": "string",
          "name": "product",
          "type": "string"
        }
      ],
      "name": "availDiscountedPrice",
      "outputs": [
        {
          "internalType": "uint256",
          "name": "",
          "type": "uint256"
        }
      ],
      "stateMutability": "view",
      "type": "function"
    },
    {
      "inputs": [],
      "name": "contractBalance",
      "outputs": [
        {
          "internalType": "uint256",
          "name": "",
          "type": "uint256"
        }
      ],
      "stateMutability": "view",
      "type": "function"
    },
    {
      "inputs": [
        {
          "internalType": "string",
          "name": "",
          "type": "string"
        }
      ],
      "name": "discountApproved",
      "outputs": [
        {
          "internalType": "bool",
          "name": "",
          "type": "bool"
        }
      ],
      "stateMutability": "view",
      "type": "function"
    },
    {
      "inputs": [
        {
          "internalType": "string",
          "name": "product",
          "type": "string"
        }
      ],
      "name": "getProductDiscount",
      "outputs": [
        {
          "internalType": "uint256",
          "name": "",
          "type": "uint256"
        }
      ],
      "stateMutability": "view",
      "type": "function"
    },
    {
      "inputs": [
        {
          "internalType": "string",
          "name": "product",
          "type": "string"
        }
      ],
      "name": "getProductPrice",
      "outputs": [
        {
          "internalType": "uint256",
          "name": "",
          "type": "uint256"
        }
      ],
      "stateMutability": "view",
      "type": "function"
    },
    {
      "inputs": [],
      "name": "insuranceCompany",
      "outputs": [
        {
          "internalType": "address",
          "name": "",
          "type": "address"
        }
      ],
      "stateMutability": "view",
      "type": "function"
    },
    {
      "inputs": [],
      "name": "manufacturer",
      "outputs": [
        {
          "internalType": "address",
          "name": "",
          "type": "address"
        }
      ],
      "stateMutability": "view",
      "type": "function"
    },
    {
      "inputs": [
        {
          "internalType": "string",
          "name": "",
          "type": "string"
        }
      ],
      "name": "productDiscounts",
      "outputs": [
        {
          "internalType": "uint256",
          "name": "",
          "type": "uint256"
        }
      ],
      "stateMutability": "view",
      "type": "function"
    },
    {
      "inputs": [
        {
          "internalType": "string",
          "name": "",
          "type": "string"
        }
      ],
      "name": "productPrices",
      "outputs": [
        {
          "internalType": "uint256",
          "name": "",
          "type": "uint256"
        }
      ],
      "stateMutability": "view",
      "type": "function"
    },
    {
      "inputs": [
        {
          "internalType": "string",
          "name": "product",
          "type": "string"
        },
        {
          "internalType": "uint256",
          "name": "price",
          "type": "uint256"
        }
      ],
      "name": "setProductPrice",
      "outputs": [],
      "stateMutability": "nonpayable",
      "type": "function"
    }
  ],
  "bytecode": "0x60806040523480156200001157600080fd5b50604051620011c3380380620011c3833981810160405281019062000037919062000129565b336000806101000a81548173ffffffffffffffffffffffffffffffffffffffff021916908373ffffffffffffffffffffffffffffffffffffffff16021790555080600160006101000a81548173ffffffffffffffffffffffffffffffffffffffff021916908373ffffffffffffffffffffffffffffffffffffffff160217905550506200015b565b600080fd5b600073ffffffffffffffffffffffffffffffffffffffff82169050919050565b6000620000f182620000c4565b9050919050565b6200010381620000e4565b81146200010f57600080fd5b50565b6000815190506200012381620000f8565b92915050565b600060208284031215620001425762000141620000bf565b5b6000620001528482850162000112565b91505092915050565b611058806200016b6000396000f3fe608060405234801561001057600080fd5b50600436106100a95760003560e01c8063694caedf11610071578063694caedf1461019e57806374754282146101ce5780638b7afe2e146101ec578063d005d90b1461020a578063d78f51b914610226578063dc4b6e7b14610244576100a9565b8063086aa172146100ae5780630dc39f7b146100de578063426ffd161461010e57806354733e8b1461013e5780635889398b1461016e575b600080fd5b6100c860048036038101906100c3919061093e565b610260565b6040516100d591906109a0565b60405180910390f35b6100f860048036038101906100f3919061093e565b61028e565b60405161010591906109a0565b60405180910390f35b6101286004803603810190610123919061093e565b6102bc565b60405161013591906109a0565b60405180910390f35b6101586004803603810190610153919061093e565b61048b565b60405161016591906109a0565b60405180910390f35b6101886004803603810190610183919061093e565b6104b3565b60405161019591906109d6565b60405180910390f35b6101b860048036038101906101b3919061093e565b6104e9565b6040516101c591906109a0565b60405180910390f35b6101d6610511565b6040516101e39190610a32565b60405180910390f35b6101f4610535565b60405161020191906109a0565b60405180910390f35b610224600480360381019061021f9190610a79565b61053d565b005b61022e610709565b60405161023b9190610a32565b60405180910390f35b61025e60048036038101906102599190610a79565b61072f565b005b6002818051602081018201805184825260208301602085012081835280955050505050506000915090505481565b6003818051602081018201805184825260208301602085012081835280955050505050506000915090505481565b60008060009054906101000a900473ffffffffffffffffffffffffffffffffffffffff1673ffffffffffffffffffffffffffffffffffffffff163373ffffffffffffffffffffffffffffffffffffffff16141580156103695750600160009054906101000a900473ffffffffffffffffffffffffffffffffffffffff1673ffffffffffffffffffffffffffffffffffffffff163373ffffffffffffffffffffffffffffffffffffffff1614155b6103a8576040517f08c379a000000000000000000000000000000000000000000000000000000000815260040161039f90610b58565b60405180910390fd5b6004826040516103b89190610be9565b908152602001604051809103902060009054906101000a900460ff16610413576040517f08c379a000000000000000000000000000000000000000000000000000000000815260040161040a90610c72565b60405180910390fd5b60006002836040516104259190610be9565b90815260200160405180910390205490506000606460038560405161044a9190610be9565b908152602001604051809103902054836104649190610cc1565b61046e9190610d32565b90506000818361047e9190610d63565b9050809350505050919050565b600060038260405161049d9190610be9565b9081526020016040518091039020549050919050565b6004818051602081018201805184825260208301602085012081835280955050505050506000915054906101000a900460ff1681565b60006002826040516104fb9190610be9565b9081526020016040518091039020549050919050565b60008054906101000a900473ffffffffffffffffffffffffffffffffffffffff1681565b600047905090565b600160009054906101000a900473ffffffffffffffffffffffffffffffffffffffff1673ffffffffffffffffffffffffffffffffffffffff163373ffffffffffffffffffffffffffffffffffffffff16146105cd576040517f08c379a00000000000000000000000000000000000000000000000000000000081526004016105c490610e09565b60405180910390fd5b60006002836040516105df9190610be9565b9081526020016040518091039020541161062e576040517f08c379a000000000000000000000000000000000000000000000000000000000815260040161062590610e75565b60405180910390fd5b6064811115610672576040517f08c379a000000000000000000000000000000000000000000000000000000000815260040161066990610f07565b60405180910390fd5b806003836040516106839190610be9565b90815260200160405180910390208190555060016004836040516106a79190610be9565b908152602001604051809103902060006101000a81548160ff0219169083151502179055507fab3fe0e6de899508b3097fb7cf044db9e1d8bb92af5ef02cc470787b6fed025d82826040516106fd929190610f60565b60405180910390a15050565b600160009054906101000a900473ffffffffffffffffffffffffffffffffffffffff1681565b60008054906101000a900473ffffffffffffffffffffffffffffffffffffffff1673ffffffffffffffffffffffffffffffffffffffff163373ffffffffffffffffffffffffffffffffffffffff16146107bd576040517f08c379a00000000000000000000000000000000000000000000000000000000081526004016107b490611002565b60405180910390fd5b806002836040516107ce9190610be9565b9081526020016040518091039020819055505050565b6000604051905090565b600080fd5b600080fd5b600080fd5b600080fd5b6000601f19601f8301169050919050565b7f4e487b7100000000000000000000000000000000000000000000000000000000600052604160045260246000fd5b61084b82610802565b810181811067ffffffffffffffff8211171561086a57610869610813565b5b80604052505050565b600061087d6107e4565b90506108898282610842565b919050565b600067ffffffffffffffff8211156108a9576108a8610813565b5b6108b282610802565b9050602081019050919050565b82818337600083830152505050565b60006108e16108dc8461088e565b610873565b9050828152602081018484840111156108fd576108fc6107fd565b5b6109088482856108bf565b509392505050565b600082601f830112610925576109246107f8565b5b81356109358482602086016108ce565b91505092915050565b600060208284031215610954576109536107ee565b5b600082013567ffffffffffffffff811115610972576109716107f3565b5b61097e84828501610910565b91505092915050565b6000819050919050565b61099a81610987565b82525050565b60006020820190506109b56000830184610991565b92915050565b60008115159050919050565b6109d0816109bb565b82525050565b60006020820190506109eb60008301846109c7565b92915050565b600073ffffffffffffffffffffffffffffffffffffffff82169050919050565b6000610a1c826109f1565b9050919050565b610a2c81610a11565b82525050565b6000602082019050610a476000830184610a23565b92915050565b610a5681610987565b8114610a6157600080fd5b50565b600081359050610a7381610a4d565b92915050565b60008060408385031215610a9057610a8f6107ee565b5b600083013567ffffffffffffffff811115610aae57610aad6107f3565b5b610aba85828601610910565b9250506020610acb85828601610a64565b9150509250929050565b600082825260208201905092915050565b7f4f6e6c7920706861726d6163792063616e2063616c6c20746869732066756e6360008201527f74696f6e00000000000000000000000000000000000000000000000000000000602082015250565b6000610b42602483610ad5565b9150610b4d82610ae6565b604082019050919050565b60006020820190508181036000830152610b7181610b35565b9050919050565b600081519050919050565b600081905092915050565b60005b83811015610bac578082015181840152602081019050610b91565b60008484015250505050565b6000610bc382610b78565b610bcd8185610b83565b9350610bdd818560208601610b8e565b80840191505092915050565b6000610bf58284610bb8565b915081905092915050565b7f446973636f756e7420686173206e6f74206265656e20617070726f766564207960008201527f65742e0000000000000000000000000000000000000000000000000000000000602082015250565b6000610c5c602383610ad5565b9150610c6782610c00565b604082019050919050565b60006020820190508181036000830152610c8b81610c4f565b9050919050565b7f4e487b7100000000000000000000000000000000000000000000000000000000600052601160045260246000fd5b6000610ccc82610987565b9150610cd783610987565b9250828202610ce581610987565b91508282048414831517610cfc57610cfb610c92565b5b5092915050565b7f4e487b7100000000000000000000000000000000000000000000000000000000600052601260045260246000fd5b6000610d3d82610987565b9150610d4883610987565b925082610d5857610d57610d03565b5b828204905092915050565b6000610d6e82610987565b9150610d7983610987565b9250828203905081811115610d9157610d90610c92565b5b92915050565b7f4f6e6c7920696e737572616e636520636f6d70616e792063616e2063616c6c2060008201527f746869732066756e6374696f6e00000000000000000000000000000000000000602082015250565b6000610df3602d83610ad5565b9150610dfe82610d97565b604082019050919050565b60006020820190508181036000830152610e2281610de6565b9050919050565b7f50726f6475637420646f6573206e6f742065786973742e000000000000000000600082015250565b6000610e5f601783610ad5565b9150610e6a82610e29565b602082019050919050565b60006020820190508181036000830152610e8e81610e52565b9050919050565b7f446973636f756e742063616e6e6f74206265206d6f7265207468616e2031303060008201527f2500000000000000000000000000000000000000000000000000000000000000602082015250565b6000610ef1602183610ad5565b9150610efc82610e95565b604082019050919050565b60006020820190508181036000830152610f2081610ee4565b9050919050565b6000610f3282610b78565b610f3c8185610ad5565b9350610f4c818560208601610b8e565b610f5581610802565b840191505092915050565b60006040820190508181036000830152610f7a8185610f27565b9050610f896020830184610991565b9392505050565b7f4f6e6c79206d616e7566616374757265722063616e2063616c6c20746869732060008201527f66756e6374696f6e000000000000000000000000000000000000000000000000602082015250565b6000610fec602883610ad5565b9150610ff782610f90565b604082019050919050565b6000602082019050818103600083015261101b81610fdf565b905091905056fea2646970667358221220fc3e032517cd39d67d82ee04abdaef9ac12251a099f0b75bd38aa188c72c131f64736f6c63430008140033",
  "linkReferences": {},
  "deployedLinkReferences": {}
}